:020000040800F2
:10000000300B0120451D00085D0200085F0200085A
:1000100063020008670200086B020008000000008D
:100020000000000000000000000000006F02000857
:100030007102000800000000730200087502000849
:100040005F1D00085F1D00085F1D00085F1D0008A0
:100050005F1D00085F1D0008551800085F1D00089F
:100060007D180008A3180008C91800085F1D0008C3
:100070005F1D00085F1D00085F1D00085F1D000870
:100080005F1D00085F1D00085F1D00085F1D000860
:100090005F1D00085F1D00085F1D00085F1D000850
:1000A0005F1D00085F1D00085F1D00085F1D000840
:1000B0005F1D00082D1700085F1D00085F1D000868
:1000C0005F1D00085F1D00085F1D00085F1D000820
:1000D0005F1D0008111C00085F1D00085F1D00085F
:1000E0005F1D00085F1D00085F1D00085F1D000800
:1000F0005F1D00085F1D00085F1D00085F1D0008F0
:100100005F1D00085F1D00085F1D00085F1D0008DF
:100110005F1D00085F1D00085F1D00085F1D0008CF
:100120005F1D00085F1D00085F1D00085F1D0008BF
:100130005F1D00085F1D00085F1D00085F1D0008AF
:100140005F1D00085F1D00085F1D00085F1D00089F
:100150005F1D00085F1D00085F1D00085F1D00088F
:100160005F1D00085F1D00085F1D00085F1D00087F
:100170005F1D00085F1D00085F1D00085F1D00086F
:100180005F1D00085F1D0008DFF810D003F038FC89
:100190000048004715020008AFF30080300B012033
:1001A000F0B587B006460D46174600240BE0305DDB
:1001B000092804DC305D303001A9085502E0302008
:1001C00001A90855641C102CF1DB632D00DD6325AB
:1001D0000A2095FBF0F03030C0B28DF814000A20F0
:1001E00095FBF0F100FB11503030C0B28DF81500D6
:1001F0000FB1312000E030208DF816000A208DF874
:10020000170000208DF8180001A9124801F085FCA4
:1002100007B0F0BD10B54FF4A06001F0A5FDA82017
:1002200001F0DCFB0C4801F085FC4FF4E13001F0FB
:100230003EFD01F05CFB01F02DFA42F2CF0140F6E9
:10024000B73001F047FA04E000F0BAFF044600209E
:1002500010BDF9E700440040A0252600704700BF0C
:10026000FEE700BFFEE700BFFEE700BFFEE7704706
:1002700070477047704700000CB500200190009057
:100280007648006840F480307449086000BF7348C5
:10029000006800F4003000900198401C0190009824
:1002A00018B90198B0F5A04FF1D16C48006800F47E
:1002B000003010B10120009001E000200090009873
:1002C000012846D165484030006840F080506349BD
:1002D000403108606248006840F44040604908606E
:1002E0005E48083000685D490831086008460068CB
:1002F00040F4004008600846006840F4A0500860E0
:100300005848091F0860081F006840F08070091FE6
:10031000086000BF5148006800F000700028F9D064
:1003200040F20570504908604C480830006820F0E1
:1003300003004A49083108600846006840F002009E
:10034000086000BF45480830006800F00C0008282D
:10035000F8D10CBD10B54548006840F47000434921
:1003600008603E48006840F001003C4908600020F9
:100370003A4908310860394800683D490840374922
:1003800008603C48091D0860081F006820F48020B0
:10039000091F0860002031490C310860FFF76CFF2D
:1003A0004FF0006031498039086010BD70B5002001
:1003B0000022022300240221284D08352D6805F073
:1003C0000C0020B1042806D0082834D107E02A4DBB
:1003D0002A4E356033E02A4D284E35602FE01F4D00
:1003E0002D1D2D68C5F380541C4D2D1D2D6805F065
:1003F0003F0154B1224DB5FBF1F5184E361D36685C
:10040000C6F3881605FB06F209E01B4DB5FBF1F5B6
:10041000124E361D3668C6F3881605FB06F20F4DE0
:100420002D1D2D68C5F301456D1C6B00B2FBF3F566
:10043000124E356003E0104D104E356000BF00BF16
:10044000064D08352D68C5F303150E4E705D0B4D36
:100450002D68C540094E356070BD0000003802406F
:100460000070004008544007003C024088ED00E066
:10047000FFFFF6FE103000240024F40004000020EA
:1004800000127A000800002050F8903F0B440360EF
:100490004368134443609038704770B50546A02008
:1004A00003F0B2FB044600F087FA88346060002055
:1004B0002060A060E06020616061883C002D3DD13B
:1004C0002070012060600020A0600221E160012115
:1004D0002161002161610121A161E16121620221AB
:1004E00061620021A1620121E16221636163022155
:1004F000A1630121E1630221216461640121A164FE
:100500000021E164012121656165A1650221E165A8
:10051000216600216166A166E166216701216167AC
:10052000A167E1670221C4F880100121C4F884109A
:10053000022200212046FFF7A7FF89E1012D41D1CA
:1005400001202070022060600020A0600021E16096
:1005500001212161002161610121A161E16121622B
:10056000022161620021A1620121E1620021216377
:10057000022161630121A163E16302212164012160
:100580006164A1640021E164012121656165A165C7
:100590000221E165216661660021A1660121E16613
:1005A000216761670221A1670021E1670221C4F888
:1005B00080100121C4F88410022200212046FFF798
:1005C00063FF45E1022D42D10220207003206060CC
:1005D0000120A0600021E160012121616161A16130
:1005E0000221E16101212162032161620021A162F6
:1005F0000221E1620121216302216163A163E163C0
:100600000321216402216164A1640021E1640221CB
:100610002165012161650221A165E1652166032152
:1006200061660021A1660121E166216761670221FF
:10063000A1670121E1670321C4F880100121C4F8FA
:1006400084100222811E2046FFF71EFF00E1032DC9
:100650003AD103202070042060600020A0600021B7
:10066000E160216101216161A1610021E16101215C
:100670002162616201261FE004F1080000EB4610D0
:10068000D4E9021206C004F1080000EB4611D4E9D7
:100690000402C1E9020204F1080000EB4611D4E9AA
:1006A0000602C1E9040204F1080000EB4611D4E996
:1006B0000802C1E90602761C042EDDDB03220021BC
:1006C0002046FFF7E1FEC3E0042D40D10420207056
:1006D000052060600020A0600121E160002121610F
:1006E000022161610121A1610021E16101212162F9
:1006F00061620021A1620121E16221636163A16362
:100700000221E163216461640121A164E164216546
:1007100002216165A1650021E165022121660121B7
:1007200061660021A166E166012121670021616700
:100730000121A167E1670221C4F880100121C4F8FA
:100740008410022200212046FFF79EFE80E0052D46
:100750003ED105202070062060600020A0600121AD
:10076000E1602161002161610121A161E1612162FA
:10077000022161620021A1620121E16221636163C2
:10078000A1630221E163216401216164A16400216C
:10079000E164012121656165A1650221E1652166B0
:1007A000012161660021A1660121E1662167002126
:1007B00061670121A167E1670221C4F8801001216E
:1007C000C4F88410022200212046FFF75DFE3FE0BE
:1007D000062D3DD106202070072060600020A0601B
:1007E0000021E160216101216161A161E16121627A
:1007F000022161620021A1620221E16201212163E3
:100800006163A1630221E163216401216164A16448
:100810000021E1640121216561650221A1650121B9
:10082000E1650221216661660021A1660121E16680
:100830002167002161670121A167E1670221C4F8F6
:1008400080100021C4F8841002222046FFF71CFE0D
:10085000204670BD2DE9F041054605F10800D5F8A8
:10086000881000EB4117202003F0CEF90646002443
:1008700010E057F83400D5F89010084446F83400DA
:1008800007EBC4004068D5F89410084406EBC40197
:100890004860641C042CECDB3046BDE8F0812DE997
:1008A000F04781460D4616469A464846FFF7D2FF66
:1008B000804600240FE03069D9F8041050F8210078
:1008C00058F83420316851F8221008EBC4025268FD
:1008D00041F82200641C042CEDDB55F8900FA86051
:1008E0006868E860002028606860903D2846FFF74F
:1008F000B1FF074600240EE03069696850F8210016
:1009000057F83420716851F8221007EBC40252687E
:1009100041F82200641C042CEEDB9035A8682860A6
:10092000E8686860903D304600F0B7FA51463046BE
:1009300000F00FFD00240CE03069006858F8342006
:10094000316851F8221008EBC402526841F82200C5
:10095000641C042CF0DB00240CE03069006857F8BC
:100960003420716851F8221007EBC402526841F834
:100970002200641C042CF0DB404603F01DF93846CD
:1009800003F01AF9BDE8F08750F8881F491C016090
:1009900050F88819042902D10021C0F88810704746
:1009A00050F8881F491E016050F88819491C11B978
:1009B0000321C0F8881070470048704718000020D5
:1009C000EB480068EB494843EB490844E8490860B4
:1009D000084600687047F0B502460D466B1E0FE0F2
:1009E000FFF7EEFF0721B0FBF1F701FB170452F808
:1009F000236052F8240042F8230042F824605B1E72
:100A0000002BEDDCF0BD10B504462069072805DB9E
:100A10000721E068FFF7DFFF002020612169481C03
:100A20002061E06850F8210010BD10B504461C207C
:100A300003F0EAF8E0600220FFF72FFDE1680860AC
:100A40000120FFF72AFDE16848600020FFF725FD3F
:100A5000E16888600320FFF720FDE168C86004209A
:100A6000FFF71BFDE16808610520FFF716FDE1684F
:100A700048610620FFF711FDE168886110BD70B57F
:100A800005460E461C2003F0BFF8044631462846B2
:100A900000F0C0F9A0602046FFF7C7FF07202061E3
:100AA0002046FFF7B0FF60612046FFF7ACFFA06172
:100AB0000020207060706060204670BD70B50446F4
:100AC000002505E0E16851F8250003F075F86D1C7C
:100AD000072DF7DBE06803F06FF8204603F06CF8B1
:100AE00070BD70B504460D462B46A268D4E90501D9
:100AF000FFF7D5FE70BD70B505466869FFF7AAFE21
:100B0000064600240EE006EBC40356F834105A687B
:100B1000A86800F01EFA20B9304603F04DF8002016
:100B200070BD641C042CEEDB304603F045F8012058
:100B3000F6E770B505466869FFF78CFE06460024A7
:100B40000EE006EBC40356F834105A68A86800F0AB
:100B5000F1F920B1304603F02FF8012070BD641C7C
:100B6000042CEEDB304603F027F80020F6E710B542
:100B70000446207890B9012200216069FFF784FCC7
:100B80002046FFF7D6FF18B92046FFF7B4FF28B973
:100B90004FF0FF3200216069FFF776FC10BD10B501
:100BA0000446207890B94FF0FF3200216069FFF7CA
:100BB0006BFC2046FFF7BDFF18B92046FFF79BFFEF
:100BC00020B9012200216069FFF75EFC10BD31B140
:100BD000012907D0022909D0032910D10AE043686E
:100BE000436011E04368643343600DE04368C833F9
:100BF000436009E0436803F59673436004E043688B
:100C000003F5C873436000BF00BF436813444360EB
:100C100070472DE9F04104466069FFF71BFE074667
:100C2000002511E0A06800696169496850F8210059
:100C3000A168096857F8352051F8221007EBC50262
:100C4000526841F822006D1C042DEBDB384602F09F
:100C5000B3FFA1690878FFF720FC60612046FFF729
:100C60004AFF08B9012020702046FFF7CCFEA061A2
:100C7000A06800F0BEF90646002E04DD00223146D1
:100C80002046FFF7A4FFBDE8F08110B504462078A8
:100C9000A0B9002201216069FFF7F6FB2046FFF7AB
:100CA00048FF18B92046FFF726FF38B90022511E29
:100CB0006069FFF7E9FB2046FFF7ABFF10BD10B5F9
:100CC0000446207868B96069FFF75EFE2046FFF7AA
:100CD00030FF18B92046FFF70EFF10B96069FFF723
:100CE0005FFE10BD70B505460C46612C20D008DCB7
:100CF000412C1CD0442C1FD0532C0ED0572C20D16B
:100D000006E0642C19D0732C08D0772C19D100E0A0
:100D100000BF2846FFF7D3FF14E000BF2846FFF7C7
:100D2000B4FF012200212846FFF751FF0AE000BF6F
:100D30002846FFF734FF05E000BF2846FFF717FFFE
:100D400000E000BF00BF70BD10B50446A06800F011
:100D500015F82046FFF769FE2046FFF754FE606154
:100D60002046FFF750FEA0610020606010BD00002B
:100D7000380000200D6619005EF36E3C2DE9F0414D
:100D80000446A168880002F03FFF2060002507E0CC
:100D9000E168880002F038FF216841F825006D1CE9
:100DA000A068A842F4DC202002F02EFF606000253D
:100DB00006E0102002F028FF616841F825006D1C54
:100DC000082DF6DB00260FE04FF0000808E0206950
:100DD0000068216851F8261041F8280008F1010840
:100DE000E0684045F3DC761CA068B042ECDC0025EE
:100DF0000CE0002707E020690068616851F82510C1
:100E000041F827007F1C042FF5DB6D1C082DF0DB5B
:100E1000BDE8F08170B505460E46142002F0F4FEE0
:100E20000446A560E660FFF7C7FD20612046FFF796
:100E3000A5FF204670BD02460B46002107E0106961
:100E400050F82100984201D108467047491C0829F2
:100E5000F5DB40F25740F8E770B50446002505E0A1
:100E6000216851F8250002F0A7FE6D1CA068A84279
:100E7000F6DC206802F0A0FE002505E0616851F86C
:100E8000250002F099FE6D1C082DF7DB606802F06A
:100E900093FE204602F090FE70BD2DE9FC5F0546F2
:100EA000002438E0002632E0204604EBD0714910DF
:100EB000A4EB410109B9314602E0E968491E891BEA
:100EC0000F46042C0BDA102F09DA0B2F07DD6868A8
:100ED00050F82410A7F10C0051F8208004E0286895
:100EE00050F8240050F82780C8F307404FEA9009D3
:100EF000C8F307204FEA900AC8F3850BF2B2E1B2BB
:100F00004B464A48CDE900AB00F054FB761CE8683C
:100F1000B042C9DC641CA868A042C3DC002405E020
:100F2000A0B2424A102100F0B5FA641C202CF7DB75
:100F3000BDE8FC9F0346002909DB9868884206DD6E
:100F4000002A04DBD868904201DD002070470120B0
:100F5000FCE710B50346186850F8210050F822004D
:100F60001C692468A04201D1012010BD0020FCE7CB
:100F700070B50B46002112E0046854F8234054F881
:100F800021409E18056855F8265045F8214004690F
:100F90002468056855F8235045F82140491CC46869
:100FA0008C42E9DC70BD10B50A46002107E00369F8
:100FB0001B68046854F8224044F82130491CC36877
:100FC0008B42F4DC10BD10B502460B4600210BE04D
:100FD000106850F8230050F8210014692468A042DA
:100FE00001D1002010BD491CD0688842F0DC0120EE
:100FF000F8E770B506460024B068451E12E02946A1
:101000003046FFF7E0FF28B129463046FFF7CBFF17
:10101000641C06E0002C04DD224629463046FFF71A
:10102000A7FF6D1E002DEADA204670BD6400002087
:101030000146002002E000220A54401C1028FADB7E
:10104000704710B502460B46002106E0505C5C5C20
:10105000A04201D0002010BD491C1029F6DB012060
:10106000F9E70246002002E00B5C1354401C1028F4
:10107000FADB70472DE9F04704460F463846FFF784
:10108000D7FF0CB1A06908B9BDE8F087A069D0F816
:101090009080A069D0F894900020A169C1F89000D8
:1010A000A169C1F89400A069FFF7D4FB06460025AA
:1010B00012E056F8350006EBC502516800280ADB3D
:1010C000042808DA002906DB042904DAA269127967
:1010D00001EB8003FA546D1C042DEADB304602F06C
:1010E0006BFDA069C0F89080A069C0F8949000BF23
:1010F000CAE72DE9FF4705460E46174698460DB943
:10110000BDE8FF8769462846FFF7B4FF39466846C1
:10111000FFF797FF80F0010968683168884203D3C0
:1011200068683168441A00E00024B8F1000F03D168
:10113000B9F1000F00D1D4B12CB900221146684694
:10114000FFF72EF80DE005E0002263216846FFF767
:1011500027F8633C632CF7D8E1B200226846FFF71A
:101160001FF86868306069463846FFF77AFF00BFAD
:10117000C6E71FB56846FFF75BFF012200216846FE
:10118000FFF70EF81FBD10B504466068FFF764FE58
:1011900010BD2DE9F04105460E46174698460C2035
:1011A00002F032FD0446FFF707FC206010212020EA
:1011B000FFF730FE60600020A0602046BDE8F081AF
:1011C0002DE9F04385B04FF00008002004904FF067
:1011D00001090423082210212020FFF7DAFF074627
:1011E00010212020FFF74BFC04466846FFF720FF44
:1011F00074480078002814D073A002F013FC7AA081
:1012000002F010FC7BA002F00DFC7DA002F00AFCB5
:101210007EA002F007FC81A002F004FC84A002F092
:1012200001FC00208549087086E020467968FFF7B8
:1012300058FC4B466A4604A92046FFF75AFF4FF078
:1012400000097E480078012809D1207838B96078F3
:1012500028B92046FFF719FD002078490870784822
:10126000007801285AD17748057800207449087021
:10127000207850B9512D01D0712D06D151480078F8
:1012800010B171A002F0CEFB57E0542D01D0742DA7
:1012900018D1607808B9012000E000206070607803
:1012A00030B948480078D8B169A002F0BBFB17E01C
:1012B0006078012814D14348007888B167A002F013
:1012C000B1FB0DE0207858B955B129462046FFF70B
:1012D00009FD532D01D0732D02D10020574908700C
:1012E000207801281AD1512D01D0712D06D1354811
:1012F000007810B15BA002F095FB1EE075B10020F4
:10130000207080462046FFF71FFDFFF732FF0020C8
:1013100004906846FFF78CFE4FF001092078012801
:101320000AD1B8F1000F07D12648007810B152A0B9
:1013300002F078FB4FF0010877E700BF66682046AF
:10134000FFF7BCFB3846FFF71EFF304605B0BDE88F
:10135000F08330B502460B4600200FE000210AE082
:10136000146854F8204054F821401D6855F8205066
:1013700045F82140491C1029F2DB401C2028EDDBF8
:1013800000200FE000210AE0546854F8204054F88F
:1013900021405D6855F8205045F82140491C04293A
:1013A000F2DB401C0828EDDB30BD10B50446606858
:1013B000FFF773FD0348007818B133A0A16802F06D
:1013C00031FB10BD02000020636F6E74726F6C20E1
:1013D000284361736520696E73656E7369746976FD
:1013E00065293A0A00000000613A206C6566740ABB
:1013F00000000000733A20646F776E0A000000005E
:10140000643A2072696768740A000000772C2073C0
:10141000706163653A207370696E0A00743A2070D7
:10142000617573652F636F6E74696E75650A000070
:10143000513A20717569740A000000003C000020D8
:101440000000002001000020657869740D0A00008A
:10145000636F6E74696E75650D0A00007061757357
:10146000650D0A006578697420286C6F6F736520BC
:101470006F7574290D0A0000596F7520617265201F
:101480006C6F7365210D0A0053636F72653A2025F6
:10149000640A00002DE9F04F91B005460F469046D2
:1014A000002485EA070000F0FF09AA222146641CF7
:1014B00002A8425455222146641C42542146641C11
:1014C00045542146641C4754002635E0280100EBB2
:1014D000400006EB4601084418F800A0280100EB84
:1014E000400006EB46010844401C18F800B02801F3
:1014F00000EB400006EB46010844801C18F8000091
:1015000001902046611C8CB202A901F800B020466F
:10151000611C8CB202A901F800A02146621C94B2A1
:1015200002AA0198505489EA0B0989EA0A0901982C
:1015300089EA0009701CC6B2BE42C7DB2046611CA6
:101540008CB202A901F80090214602A800F044FBE9
:1015500011B0BDE8F08F10B5C0F1FF04A0B255285E
:101560000ADA00EB4004C4F1FF040C80002414806C
:1015700000EB40041C801CE0AA280DDAA0F1550401
:10158000A0B200240C8000EB4004148000EB400467
:10159000C4F1FF041C800CE0A0F1AA04A0B200EB8F
:1015A00040040C8000EB4004C4F1FF0414800024CC
:1015B0001C8010BDF0B50C46DDE90556270107EB90
:1015C000470702EB420C07EB0C010F4601F1010C3F
:1015D0001FFA8CF1C3550F4601F1010C1FFA8CF173
:1015E000C5550F4601F1010C1FFA8CF1C655F0BD2F
:1015F00000264FF4A06000F0B7FBA82000F0EEF941
:1016000000F048F84FF4E13000F094FA00253CE097
:10161000002424E0002719E006EBC400C1B24046D4
:101620004FEAE87208EB1272C2F30F1848464FEA0D
:10163000E97209EB1272C2F30F1950464FEAEA72CF
:101640000AEB1272C2F30F1A781C87B2102FE3DB79
:101650000E4A10212046FFF71DFF601C84B2202C8B
:10166000D8DB701CC6B20A20B5FBF0F100FB1150AC
:1016700038B90748006808B9012000E00020044993
:1016800008606D1C012000F00BFAC1E76400002027
:10169000A48242421CB50121202000F0F9FE4FF443
:1016A000C060009001208DF8040000208DF8060035
:1016B00003208DF8050001208DF8070069460448D5
:1016C00000F048FC4FF4C061014800F0BFFC1CBDB5
:1016D000001402407FB505460C460121022000F0AF
:1016E00020FF0295ADF804400020ADF80600ADF8EB
:1016F0000C0001A9144801F016F901221146124804
:1017000001F0B2FD0121104801F096F91D208DF87D
:10171000000001208DF8010003208DF80200012057
:101720008DF80300684600F024FB7FBD10B5012151
:10173000054801F0B0FD012801D1044908700121DC
:10174000014801F0B9FD10BD000400403C0000203C
:101750001CB50121112000F09BFE1C2000900020F0
:101760008DF8040003208DF8050001208DF8070096
:101770006946354800F0EEFB0120009002208DF80C
:1017800007006946314800F0E5FB1CBD10B5044672
:1017900014B101202E4908702D480078002837D058
:1017A0001021294800F038FC78B10821264800F0C3
:1017B00033FC50B10421244800F02EFC28B1012153
:1017C000224800F029FC012822D10A2000F068F903
:1017D00000201F49087010211B4800F01DFC08B9AB
:1017E000012010BD0821184800F016FC08B902209D
:1017F000F7E70421144800F00FFC08B90320F0E7D4
:101800000121124800F008FC01281BD10420E8E760
:1018100010210D4800F000FC012813D108210A48CE
:1018200000F0FAFB01280DD10421074800F0F4FB79
:10183000012807D10121054800F0EEFB10B9012075
:10184000034908700020CCE700100240000002406D
:101850003D00002010B50A2000F022F901215B486C
:1018600000F0DAFB012805D17720594908700120E2
:1018700058490870012002F0A4F810BD10B50A20E4
:1018800000F00EF90421544800F0C6FB28B961208D
:101890004F49087001204F490870042002F091F868
:1018A00010BD10B50A2000F0FBF808214A4800F0EE
:1018B000B3FB28B9732046490870012045490870D8
:1018C000082002F07EF810BD10B50A2000F0E8F8FC
:1018D0001021414800F0A0FB28B964203C49087061
:1018E00001203C490870102002F06BF810BD0EB5C5
:1018F000FFF72EFF0121880300F024FE02210420BF
:1019000000F02BFF0321042000F027FF04210846EC
:1019100000F023FF0021084600F01FFF0120009087
:1019200000208DF8040008208DF8050001208DF8B6
:101930000600684601F0D4FF1C20009000208DF8BE
:1019400004000C208DF8050001208DF80600684683
:1019500001F0C6FF06208DF8080000208DF8090070
:1019600002208DF80A0001208DF80B0002A800F07B
:1019700000FA08208DF8080003208DF809000220E5
:101980008DF80A0001208DF80B0002A800F0F1F993
:1019900009208DF8080002208DF809008DF80A0052
:1019A00001208DF80B0002A800F0E3F90A208DF861
:1019B000080001208DF8090002208DF80A0001209E
:1019C0008DF80B0002A800F0D4F90EBD0000024013
:1019D00001000020000000200010024010B5044665
:1019E0006FF0040000F012FAE11704EB5171C1F33B
:1019F000C701394A11701046007800EB4001C1EB75
:101A0000C0104FF6FF7101EAC0003449088010BDD4
:101A10000146314A12784A434FF0E0235A610022CE
:101A20009A611A46126942F001021A6100BF4FF032
:101A3000E022106900F001021AB100F48032002A9D
:101A4000F5D04FF0E022126922F001024FF0E023BE
:101A50001A6100229A6170470146204A12884A435F
:101A60004FF0E0235A6100229A611A46126942F04F
:101A700001021A6100BF4FF0E022106900F001027C
:101A80001AB100F48032002AF5D04FF0E02212693A
:101A900022F001024FF0E0231A6100229A617047A0
:101AA00070B504464FF4077094FBF0F0C6B24FF4E3
:101AB000077094FBF0F100FB114085B205E04FF494
:101AC0000770FFF7C9FF701EC6B2002EF7D115B11F
:101AD0002846FFF7C1FF70BD3E00002040000020F7
:101AE000014600BF704700BF8F4A128802F04002D3
:101AF000002AF9D0C2B28C4B9A80704770B5044668
:101B00000D4600BF8021204601F07CFE0028F9D060
:101B10002946204601F0C6FD70BD70B505460C464D
:101B200004E021782846FFF7E9FF641C20780028AC
:101B3000F7D170BD10B588B004460121084600F009
:101B4000A7FC0121102000F0FDFC072209217748A5
:101B500000F08BFA07220A21744800F086FA4FF44D
:101B6000C060069002208DF81C008DF81D0000203A
:101B70008DF81E0001208DF81F0006A96B4800F0AB
:101B8000E9F902940020ADF80C00ADF80E00ADF8B4
:101B90001000ADF814000C20ADF8120002A9624844
:101BA00001F0CDFC0121604801F051FD012240F21D
:101BB00025515D4801F001FE25208DF80400032029
:101BC0008DF805008DF8060001208DF8070001A8AA
:101BD00000F0CFF808B010BD70B505460E460024E1
:101BE0000CE000BF8021504801F00CFE0028F9D025
:101BF000295D4D4801F056FD601C84B2B442F0DB13
:101C000000BF4021484801F0FDFD0028F9D070BD1B
:101C100010B540F22551444801F00AFE002845D095
:101C2000414801F043FDC4B24148008800F400403F
:101C300058BB3F48008800F4804060B10A2C03D0B4
:101C400000203B49088020E03948008840F40040EB
:101C50003749088019E00D2C06D13548008840F43A
:101C600080403349088010E031480088C0F30D00FF
:101C700030490C542E480088401C2D4908800846E5
:101C80000088C72801DD00200880612C09D0732C52
:101C900007D0642C05D0772C03D0742C01D0712C84
:101CA00004D12548047001202449087010BD10B5E6
:101CB00086B004460121084600F0EAFB01214804F1
:101CC00000F02FFC07220221184800F0CEF907226D
:101CD0000321164800F0C9F90C20049002208DF869
:101CE00014008DF8150000208DF8160001208DF8E5
:101CF000170004A90D4800F02DF900940020ADF85C
:101D00000400ADF80600ADF80800ADF80C000C209A
:101D1000ADF80A0069460A4801F011FC01210848A3
:101D200001F095FC06B010BD00100140000002401B
:101D30004800002064060020010000200000002070
:101D4000004400400648804706480047FEE7FEE79B
:101D5000FEE7FEE7FEE7FEE7FEE7FEE7FEE7FEE75B
:101D6000550300088901000832490143324A1160D5
:101D7000704770B5002100230F22C4781CB32E4C8D
:101D8000246804F4E064C4F5E064C4F30721C1F1FD
:101D90000404E3B20A4144789C40E1B284781440E0
:101DA00021430C07210E254C05786155047804F079
:101DB0001F050124AC4005786D11AD0005F1E0254B
:101DC000C5F8004109E0047804F01F050124AC4087
:101DD0001B4D0678761145F8264070BD194A0A4019
:101DE0000243154B1B1F1A60704739B1124A121D6E
:101DF00012680243104B1B1D1A6006E00E4A121DAA
:101E0000126882430C4B1B1D1A607047042808D1CE
:101E10004FF0E021096941F004014FF0E022116127
:101E200007E04FF0E021096921F004014FF0E022C2
:101E3000116170470000FA050CED00E000E400E0DD
:101E400080E100E080FFFF1F10B5044698488442FF
:101E500008D10121084600F086FB0021012000F096
:101E600082FB76E09348844208D10121022000F0F1
:101E70007AFB0021022000F076FB6AE08E48844263
:101E800008D10121042000F06EFB0021042000F0A5
:101E90006AFB5EE08948844208D10121082000F0F5
:101EA00062FB0021082000F05EFB52E0844884427F
:101EB00008D10121102000F056FB0021102000F075
:101EC00052FB46E07F48844208D10121202000F0E7
:101ED0004AFB0021202000F046FB3AE07A48844289
:101EE00008D10121402000F03EFB0021402000F0FD
:101EF0003AFB2EE07548844208D10121802000F091
:101F000032FB0021802000F02EFB22E0704884424A
:101F100008D10121801500F026FB0021A01500F05A
:101F200022FB16E06B48844208D10121401500F0E5
:101F30001AFB0021601500F016FB0AE06648844297
:101F400007D10121001500F00EFB0021201500F043
:101F50000AFB10BDF0B50A4600210023002400BF93
:101F60003DE0012505FA01F3156805EA03049C42EA
:101F700034D105684F000326BE40B543056015798E
:101F80004E00B5400668354305601579012D02D035
:101F90001579022D16D185684F000326BE40B54342
:101FA000856055794E00B540866835438560456843
:101FB00001268E40B5434560456896798E40B6B29D
:101FC00035434560C5684F000326BE40B543C56034
:101FD000D5794E00B540C6683543C560491C102907
:101FE000BFD3F0BD4FF6FF71016000210171417157
:101FF0008171C171704708B54FF480320092009A28
:102000000A430092009AC261C161009AC261C2692A
:102010000092C269009208BD0246002013690B407D
:102020000BB1012000E0002070470146086980B232
:1020300070470246002053690B400BB1012000E0BD
:10204000002070470146486980B27047018370479D
:10205000418370470AB1018300E0418370474161C9
:10206000704742694A4042617047F0B5002300243E
:102070004D07ED0E02FA05F3CE1000F1200555F8DC
:1020800026504E07F70E0F26BE40B543CF1000F185
:10209000200646F82750CE1000F1200555F82650AE
:1020A00045EA0304CE1000F1200545F82640F0BDB6
:1020B000000002400004024000080240000C024000
:1020C000001002400014024000180240001C0240B0
:1020D000002002400024024000280240F948006825
:1020E00040F00100F74908600020F6490831086017
:1020F000F4480068F4490840F2490860F348091DB3
:102100000860F348EF4984310860F0481038091D31
:102110000860EC48006820F48020EA49086000204C
:10212000E8490C310860E7498C31086070470021AC
:10213000E44A921C117011460870704710B50146B0
:102140000022002300204A11012A02D1DD4C23681D
:1021500008E0022A03D1DB4C7034236802E0D94C3A
:102160007434236801F01F02012494401C400CB118
:10217000012000E0002010BD38B5002000900024B0
:10218000002500BF3120FFF7D9FF05460098401C0D
:1021900000900098B0F5A04F01D0002DF2D0312072
:1021A000FFF7CCFF08B1012400E00024204638BD31
:1021B00001460020C34A106820F0F80040EAC10040
:1021C00010607047C349086070470021BD4A7032F3
:1021D00011701170012802D004280AD104E00121F5
:1021E000B84A7032117005E00521B64A703211709C
:1021F00000E000BF00BF7047B7490860704770B586
:10220000049C41EA82150126C6EB530645EA0645C1
:10221000054345EA0465AB4E361D356070BDAD49DA
:1022200008667047820142EA0172A64B84331A6045
:102230007047A8498866704710B5830143EA016377
:1022400043EA02739F4C8834236010BDA14908679C
:102250007047A049C864704702460020994B083374
:10226000186820F0EC6042EA01031843954B0833EC
:102270001860704702460020924B0833186820F01F
:10228000784042EA010318438E4B083318607047C8
:10229000014600208B4A0832106820F003000843F2
:1022A0001060704787480830006800F00C007047E5
:1022B00001460020834A0832106820F0F0000843ED
:1022C00010607047014600207E4A0832106820F4F2
:1022D000E05008431060704701460020794A0832F8
:1022E000106820F4604040EAC10010607047F0B50B
:1022F000002100220024022500260223714F083706
:102300003F6807F00C0121B1042905D0082937D115
:1023100005E0724F076036E0714F076033E0694FA8
:102320003F1D3F68C7F38056664F3F1D3F6807F06B
:102330003F036EB16A4FB7FBF3F7DFF888C10CF1CA
:10234000040CDCF800C0CCF3881C07FB0CF40CE098
:10235000624FB7FBF3F7DFF86CC10CF1040CDCF84B
:1023600000C0CCF3881C07FB0CF4564F3F1D3F68A0
:10237000C7F301477F1C7D00B4FBF5F7076002E05F
:10238000564F076000BF00BF4E4F08373F6807F049
:10239000F0010909534F7A5C0768D7404760494FFD
:1023A00008373F6807F4E051890A4E4F7A5C476866
:1023B000D7408760434F08373F6807F46041490BB7
:1023C000484F7A5C4768D740C760F0BD002100F4F1
:1023D0004072B2F5407F0AD13A4A0832116821F4BE
:1023E000F811414A02401143364A08321160354A19
:1023F00070321268C0F30B031A43324B70331A6009
:10240000704735494439086070473349403908609E
:10241000704736490860704701460020294A8C32CF
:10242000106820F01F004A1E1043264A8C321060AC
:10243000704701460020234A8C32106820F4F8507F
:102440004A1E40EA02201F4A8C3210607047014643
:1024500000201C4A8C32106820F4401008431060A1
:10246000704701460020174A8C32106820F4400063
:1024700008431060704701460020124A8C321068F1
:1024800020F44030084310607047194908607047D5
:1024900039B10C4A3032126802430A4B30331A60A9
:1024A00006E0084A303212688243064B30331A6025
:1024B0007047F9B1034A343212680243014B343396
:1024C0001A601CE000380240FFFFF6EA10300024DA
:1024D0000030002000004742800E47420024F400F4
:1024E00000127A004A000020FFFCFF0F5C01474207
:1024F000E01147428F4A126882438E4B1A60704740
:1025000039B18C4A121D126802438A4B1B1D1A6096
:1025100006E0884A121D12688243864B1B1D1A6012
:10252000704739B1834A0C3212680243814B0C3335
:102530001A6006E07F4A0C32126882437D4B0C33EE
:102540001A60704739B17B4A103212680243794BE6
:1025500010331A6006E0774A103212688243754BD6
:1025600010331A60704739B1724A243A1268024334
:10257000704B243B1A6006E06E4A243A126882438C
:102580006C4B243B1A60704739B16A4A203A126892
:102590000243684B203B1A6006E0664A203A126804
:1025A0008243644B203B1A60704739B1614A1C3A40
:1025B000126802435F4B1C3B1A6006E05D4A1C3AFE
:1025C000126882435B4B1C3B1A60704739B1594A11
:1025D000143A12680243574B143B1A6006E0554AFE
:1025E000143A12688243534B143B1A60704739B156
:1025F000504A103A126802434E4B103B1A6006E0F4
:102600004C4A103A126882434A4B103B1A6070479A
:1026100039B1484A1C3212680243464B1C331A60D7
:1026200006E0444A1C3212688243424B1C331A6053
:10263000704739B13F4A2032126802433D4B203384
:102640001A6006E03B4A203212688243394B20333D
:102650001A60704739B1374A243212680243354B49
:1026600024331A6006E0334A243212688243314B25
:1026700024331A60704739B12E4A2C321268024353
:102680002C4B2C331A6006E02A4A2C321268824303
:10269000284B2C331A60704739B1264A3032126801
:1026A0000243244B30331A6006E0224A303212686B
:1026B0008243204B30331A607047012808D11D49EE
:1026C0003C31096841F008011A4A3C32116007E0C8
:1026D00018493C31096821F00801164A3C32116062
:1026E000704739B1134A273A12780243114B273BFE
:1026F0001A7006E00F4A273A127882430D4B273BA7
:102700001A7070470B484030006840F080700949EB
:1027100040310860704701460020064A283A126896
:102720000A400AB1012000E0002070470149263923
:10273000087070473438024010B501218803FFF754
:1027400056FF00214FF48040FFF751FF10BD1C4998
:10275000086070471B490862704730B500228B073C
:102760001C0F0F2303FA04F2154B08338C1053F897
:1027700024309343124C08348D1044F825302346FE
:102780008C1053F824308C07240F00FA04F42343F0
:102790000B4C08348D1044F8253030BD0949DC312C
:1027A00008607047084908607047002004492031DC
:1027B000096801F4807109B1012000E00020704730
:1027C00000380140000027420004274210B50446AB
:1027D000FE48844208D101210846FFF708FF002186
:1027E0000120FFF704FF9DE0B4F1804F08D10121E3
:1027F0000846FFF7EBFE00210120FFF7E7FE91E01E
:10280000F348844208D101210220FFF7DFFE0021B6
:102810000220FFF7DBFE85E0EE48844208D101216B
:102820000420FFF7D3FE00210420FFF7CFFE79E05C
:10283000E948844208D101210820FFF7C7FE0021A2
:102840000820FFF7C3FE6DE0E448844208D101216F
:102850001020FFF7BBFE00211020FFF7B7FE61E05C
:10286000DF48844208D101212020FFF7AFFE00217C
:102870002020FFF7ABFE55E0DA48844208D1012161
:102880000220FFF7B4FE00210220FFF7B0FE49E06E
:10289000D548844209D101210804FFF7A8FE002190
:1028A0004FF48030FFF7A3FE3CE0D048844209D1CA
:1028B00001214804FFF79BFE00214FF40030FFF791
:1028C00096FE2FE0CA48844209D101218804FFF70F
:1028D0008EFE00214FF48020FFF789FE22E0C548DC
:1028E000844208D101214020FFF770FE00214020E2
:1028F000FFF76CFE16E0C048844208D10121802019
:10290000FFF764FE00218020FFF760FE0AE0BB486D
:10291000844207D101218015FFF758FE0021A01540
:10292000FFF754FE10BD00220288A84B98420ED03B
:10293000AC4B98420BD0B0F1804F08D0A44B9842DA
:1029400005D0A44B984202D0A34B984204D14FF635
:102950008F731A404B881A43A04B984207D0A04B64
:10296000984204D04FF6FF431A400B891A43028065
:102970004B68C3620B880385944B984202D0994BF5
:10298000984201D18B7A03860123838270474FF0EE
:10299000FF314160002101800181418081727047D7
:1029A0000185828270470A46002101884FF68F73A5
:1029B000194011430180704741627047C1627047FE
:1029C0000146486A70470146088D704721B1028868
:1029D00042F00202028004E002884FF6FD731A40C2
:1029E0000280704721B1028842F00402028004E0B4
:1029F00002884FF6FB731A400280704721B10288AB
:102A000042F08002028004E002884FF67F731A4091
:102A10000280704702884FF6F7731A4002800288DE
:102A20000A430280704702884FF6FF431A40028033
:102A300002880A430280704721B1028842F00102F5
:102A4000028004E002884FF6FE731A40028070474D
:102A500070B5002400220023058C4FF6FE76354029
:102A60000584028C8388048B4FF68F752C40B51E2D
:102A70002C400D882C43751E2A408D892A434D8891
:102A80002A43524DA84202D0564DA84213D14FF6C8
:102A9000F7752A40CD892A434FF6FB752A408D8869
:102AA0002A434FF6FF652B404FF6FF552B400D8A0A
:102AB0002B434D8A2B43838004838D6845630284B6
:102AC00070BD70B5002400220023058C4FF6EF7610
:102AD00035400584028C8388048B48F6FF752C40B2
:102AE0004FF6FF452C400D884FF6FF7606EA052588
:102AF0002C434FF6DF752A408D8906EA05152A43D7
:102B00004D8806EA05152A43304DA84202D0354DBE
:102B1000A8421DD14FF67F752A40CD894FF6FF762A
:102B200006EA05152A434FF6BF752A408D8806EA46
:102B300005152A434FF6FF352B404FF2FF752B400A
:102B40000D8A06EA85052B434D8A06EA85052B4347
:102B5000838004838D688563028470BD70B5002412
:102B600000220023058C4FF6FF6635400584028C59
:102B70008388848B4FF68F752C404FF6FC752C4064
:102B80000D882C434FF6FF552A408D894FF6FF766E
:102B900006EA05252A434D8806EA05252A430B4DFA
:102BA000A84202D00F4DA84238D14FF2FF752A40FB
:102BB000CD894FF6FF7606EA05252A434FF6FF3505
:102BC0002A408D8806EA05252A4319E000000140C5
:102BD0000004004000080040000C004000100040CD
:102BE0000014004000040140004001400044014046
:102BF0000048014000180040001C00400020004038
:102C00004EF6FF752B404DF6FF752B400D8A06EAF8
:102C100005152B434D8A06EA05152B4383808483D3
:102C20008D68C563028470BD70B500220023002446
:102C3000058C4EF6FF7635400584038C8488828BA4
:102C400048F6FF752A404FF6FF452A400D884FF69B
:102C5000FF7606EA05252A434DF6FF752B408D8940
:102C600006EA05352B434D8806EA05352B43FE4D14
:102C7000A84202D0FD4DA84208D14BF6FF752C406A
:102C80000D8A4FF6FF7606EA85152C4384808283F1
:102C90008D680564038470BD0021018041808180BE
:102CA00081608181C18101824182704770B5034694
:102CB000002000241846183001258D40ACB21D8C30
:102CC000A5431D8409B108290AD100EB61000568FC
:102CD0004FF68F76354005600568154305600FE0B7
:102CE0000D1FC5F34E052844056848F6FF763540AC
:102CF000056005684FF6FF7606EA02263543056053
:102D000070BD4163704781637047C1637047016460
:102D100070470A460021018B4FF68F73194011430B
:102D2000018370470A460021018B48F6FF73194062
:102D30004FF6FF7303EA02231943018370470A46E3
:102D40000021818B4FF68F731940114381837047A7
:102D50000A460021818B48F6FF7319404FF6FF7336
:102D600003EA02231943818370470A460021018B3D
:102D70004FF6F77319401143018370470A4600214B
:102D8000018B4FF2FF7319404FF6FF7303EA0223E2
:102D90001943018370470A460021818B4FF6F77370
:102DA00019401143818370470A460021818B4FF2FD
:102DB000FF7319404FF6FF7303EA0223194381831F
:102DC00070470A460021018B4FF6FB7319401143EF
:102DD000018370470A460021018B4FF6FF331940EB
:102DE0004FF6FF7303EA02231943018370470A4633
:102DF0000021818B4FF6FB7319401143818370478B
:102E00000A460021818B4FF6FF3319404FF6FF73BE
:102E100003EA02231943818370470A460021018B8C
:102E20004FF67F7319401143018370470A46002112
:102E3000018BC1F30E014FF6FF7303EA022319431E
:102E4000018370470A460021818B4FF67F7319403A
:102E50001143818370470A460021818BC1F30E0123
:102E60004FF6FF7303EA02231943818370470A4632
:102E70000021018C4FF6FD73194011430184704706
:102E80000A460021018C4FF6F77319401143018463
:102E900070470A460021018C4FF6DF7319404FF648
:102EA000FF7303EA02131943018470470A460021A5
:102EB000018C4FF67F7319404FF6FF7303EA02133C
:102EC0001943018470470A460021018C4FF6FF53D5
:102ED00019404FF6FF7303EA022319430184704738
:102EE0000A460021018C4FF2FF7319404FF6FF7321
:102EF00003EA02231943018470470A460021018C2A
:102F00004DF6FF7319404FF6FF7303EA023319437E
:102F10000184704730B5002301248C40A3B2048C97
:102F20009C430484048C02FA01F5ADB22C43048462
:102F300030BD30B5002304248C40A3B2048C9C43E4
:102F40000484048C02FA01F5ADB22C43048430BD34
:102F5000828B4FF2FF331A408283828B4FF6FF73CE
:102F600003EA01231A4382837047F0B50C461546E5
:102F7000002100220026078C4EF6FF7C07EA0C0792
:102F80000784818B028C4FF6FF7707EA043640F600
:102F9000FF4739404FF6FF7707EA052739434FF6D9
:102FA000FF7707EA0337394345F6FF773A4046F49F
:102FB00080573A4381830284F0BD828B4FF6F373CE
:102FC0001A408283828B0A4382837047F0B50C4695
:102FD0001546002100220026078C4FF6FF6C07EAF9
:102FE0000C070784818B028C4FF6FF7707EA0426D3
:102FF0004FF60C7739404FF6FF7707EA03172F4358
:1030000039434FF2FF573A4046F480773A43818381
:103010000284F0BD028B4FF2FF331A400283028B11
:103020004FF6FF7303EA01231A4302837047F0B59A
:103030000C461546002100220026078C4FF6EF7C37
:1030400007EA0C070784018B028C4FF6FF7707EA2B
:10305000041640F6FF4739404FF6FF7707EA03377B
:1030600039434FF6FF7703E00000014000040140C0
:1030700007EA052739434FF65F773A4046F01007D5
:103080003A4301830284F0BD028B4FF6F3731A407A
:103090000283028B0A4302837047F0B50C46154643
:1030A00000210022068C4FF6FE773E400684018BFD
:1030B000028C4FF60C7631407E1C06EA03162E4336
:1030C00031434FF6F576324044F001063243018336
:1030D0000284F0BD70B505460C46208850B923899E
:1030E000A28861882846FFF7D8FFE1882846FFF7C5
:1030F000CBFF25E0208804280AD12389A288618893
:103100002846FFF794FFE1882846FFF783FF17E082
:10311000208808280AD12389A28861882846FFF7D9
:1031200055FFE1882846FFF748FF09E02389A28878
:1031300061882846FFF719FFE1882846FFF708FF56
:1031400070BD002101804180012181800021C1806A
:10315000018170472DE9F04105460C460026012704
:10316000608808B9022600E00026A088012801D165
:10317000022700E001272088A0B92389A28861885E
:103180002846FFF78AFFE1882846FFF77DFF23895D
:103190003A4631462846FFF74AFFE1882846FFF7BE
:1031A00039FF13E02389A28861882846FFF73FFF93
:1031B000E1882846FFF72EFF23893A463146284604
:1031C000FFF76BFFE1882846FFF75EFFBDE8F0815F
:1031D0000146486B70470146886B70470146C86BD3
:1031E00070470146086C70470A884B881A438B88E1
:1031F0001A43CB881A430B891A434B891A438B898C
:103200001A43A0F84420704700210180418081804A
:10321000C180018141818181704731B1B0F8442082
:1032200042F40042A0F8442005E0B0F84420C2F384
:103230000E02A0F84420704721B1828842F00402B7
:10324000828004E082884FF6FB731A4082807047C8
:1032500021B1828842F00102828004E082884FF628
:10326000FE731A40828070471AB183890B438381B1
:1032700002E083898B4383817047818270470246D5
:103280000020138A0B400BB1012000E000207047A2
:10329000CA430282704730B5024600200023002452
:1032A000158A05EA0103958905EA010413B10CB1F9
:1032B000012000E0002030BDCA430282704741EA8D
:1032C0000203A0F8483070471AB183890B43838109
:1032D00002E083898B438381704721B1828842F069
:1032E0000802828004E082884FF6F7731A408280D9
:1032F000704701894FF6F8721140018170470A4604
:10330000002101894FF68F731940114301817047E5
:1033100030B504460D4629462046FFF7F0FF2089C8
:1033200040F00700208130BD2DE9F04104460D46F4
:1033300016461F46602D06D13B46012231462046E7
:10334000FFF775FE05E03B46012231462046FFF7B8
:10335000A4FE29462046FFF7D2FF208940F007004F
:103360002081BDE8F08130B50C4600210189C9B249
:103370004FF6FF7505EA03251543254329430181CF
:1033800030BD2DE9F04105460E461746984600240B
:1033900043463A4631462846FFF7E5FF2C894FF66B
:1033A000F870044044F007044FF68F70044044F076
:1033B00070042C81BDE8F081F0B504460D46164638
:1033C0001F463B46324629462046FFF7CCFF208960
:1033D00040F480402081F0BD82884FF68F731A4000
:1033E000828082880A438280704702894FF6F87390
:1033F0001A40028102890A430281704702894FF60E
:103400007F731A40028102890A4302817047F0B536
:103410000C4615461E460021002200230189028B1E
:10342000038C4FF6F877394021434FF6FC473A407A
:1034300040F201173A434FF6DD773B404FF6FF77F6
:1034400007EA06172F433B43018102830384F0BD43
:1034500021B1828842F08002828004E082884FF6A7
:103460007F731A4082807047A0F8501070470000A8
:1034700010B50446FA48844208D101211020FFF714
:10348000B6F800211020FFF7B2F857E0F548844263
:1034900009D101214804FFF799F800214FF40030C9
:1034A000FFF794F84AE0F048844209D101218804EA
:1034B000FFF78CF800214FF48020FFF787F83DE0FC
:1034C000EA48844209D10121C804FFF77FF80021AE
:1034D0004FF40020FFF77AF830E0E548844209D144
:1034E00001210805FFF772F800214FF48010FFF763
:1034F0006DF823E0DF48844208D101212020FFF746
:1035000076F800212020FFF772F817E0DA488442AD
:1035100009D101218807FFF759F800214FF08040B9
:10352000FFF754F80AE0D548844207D1012140054D
:10353000FFF74CF800216005FFF748F810BD2DE9B2
:10354000FF4705460E460024A14600BFA046B089AD
:1035500000B100BF2C8A24F44054F08804432C822C
:10356000AC8941F20C608443B08831890843718989
:1035700008430443AC81AC8A24F44074B08904430A
:10358000AC826846FEF7B3FEB548854202D0B94822
:10359000854202D1DDF80C9001E0DDF80890A889A1
:1035A00000F4004040B109EBC90000EB091031689C
:1035B0004900B0FBF1F707E009EBC90000EB091087
:1035C00031688900B0FBF1F76420B7FBF0F004012B
:1035D0002009642101FB1078A88900F4004040B163
:1035E000322000EBC800B0FBF1F000F0070004430C
:1035F00008E0322000EB08106421B0FBF1F000F08D
:103600000F0004432C81BDE8FF874FF41651016081
:1036100000218180C18001810C21418100218181B3
:10362000704710B502460020108A20F470600B88A5
:103630004C8823438C882343CC882343184310822F
:1036400010BD0021018041808180C180704721B17F
:10365000828942F40052828104E082894DF6FF7330
:103660001A4082817047028B02F47F420283028BF0
:103670000A430283704721B1828942F40042828169
:1036800003E08289C2F30E028281704721B1828AEF
:1036900042F40062828204E0828A4FF2FF731A4091
:1036A00082827047C1F30802828070470146888891
:1036B000C0F308007047028A4FF6F0731A40028286
:1036C000028A0A430282704721B1828942F00202D3
:1036D000828104E082894FF6FD731A40828170472F
:1036E00082894FF2FF731A40828182890A43828164
:1036F0007047028A4FF6DF731A400282028A0A4339
:103700000282704721B1028A42F48042028204E0C0
:10371000028A4BF6FF731A4002827047818941F09A
:1037200001018181704721B1828A42F008028282C0
:1037300004E0828A4FF6F7731A4082827047028B48
:10374000D2B20283028B42EA01220283704721B186
:10375000828A42F02002828204E0828A4FF6DF737E
:103760001A408282704721B1828A42F0100282821E
:1037700004E0828A4FF6EF731A4082827047828A91
:103780004FF6FB731A408282828A0A438282704714
:1037900021B1828A42F00202828204E0828A4FF6DC
:1037A000FD731A40828270471AB1838A0B43838269
:1037B00002E0838A8B4383827047F0B5034600247E
:1037C00000260025002040F66A17B94200D100BF4C
:1037D0001846C1F3421401F01F06012707FA06F547
:1037E000012C01D10C3004E0022C01D1103000E09A
:1037F00014301AB107682F43076002E00768AF432F
:103800000760F0BD02460020B1F5007F00D100BF87
:1038100013880B400BB1012000E00020704701F439
:103820000072B2F5007F00D100BFCA43028070472A
:1038300070B50246002400230025002040F66A16D9
:10384000B14200D100BFC1F3421501F01F030126B0
:1038500006FA03F3012D13D19689334017E00000D7
:10386000001001400044004000480040004C00406F
:10387000005000400014014000780040007C0040EF
:10388000022D02D1168A334001E0968A33400C1291
:10389000012606FA04F41688344013B10CB1012055
:1038A00000E0002070BD10B50022002340F66A142D
:1038B000A14200D100BF0A1201249440A3B2DC430C
:1038C000048010BD002041490860091D0860091DE1
:1038D0000860091D08603E483C4914310860704783
:1038E00000213A498279002A3AD00A4612680368D0
:1038F0009A430B461A600A1D126803689A430B1D0F
:103900001A60027911440A6803681A430A602F4A50
:103910000832126803689A432C4B08331A601A1D48
:10392000126803689A43294B0C331A604279102AB3
:103930000ED11A1F126803681A43244B08331A6009
:103940001A1D126803681A43204B0C331A600DE0ED
:103950001E49427911440A6803681A430A6005E067
:10396000027911440A6803689A430A60704700218B
:10397000016001710C21417100218171704713496F
:10398000103109680143114A103211607047014635
:1039900000200E4A143212680A400AB1012000E0E9
:1039A0000020704709491431086070470146002023
:1039B000064A143212680A400AB1012000E00020D1
:1039C000704702491431086070470000003C014014
:1039D000FFFF7F0030B50B46014600202022012466
:1039E00009E021FA02F59D4205D303FA02F5491BCD
:1039F00004FA02F52844151EA2F10102F1DC30BDE3
:103A0000064C074D06E0E06840F0010394E807002B
:103A100098471034AC42F6D3FCF7BAFB743C00086C
:103A2000943C00080FB4054B10B503A9044A029852
:103A300000F018F810BC5DF814FB0000E71A00084D
:103A40004400002002E008C8121F08C1002AFAD171
:103A500070477047002001E001C1121F002AFBD10E
:103A6000704700002DE9FF4F89B09B4604460025B2
:103A700006E025280BD05A460B999047641C6D1C14
:103A800020780028F5D10DB02846BDE8F08F00273A
:103A9000B8460122474900E0074314F8013F203BA4
:103AA00002FA03F00842F7D120782E2819D114F831
:103AB000010F47F004072A280ED06FF02F0220785C
:103AC000A0F1300109290CD808EB880102EB410173
:103AD00000EB0108641CF2E70A98641C50F8048BA0
:103AE0000A9020780028CED0642808D0692806D013
:103AF00075281ED05A460B9990476D1C58E00A99BC
:103B00004FF00A0901C90A91002802DA40422D212A
:103B100002E0390504D52B218DF82010012103E0A6
:103B2000F90704D02021F7E78A4608AE0DE000210E
:103B3000FAE70A994FF00A0901C90A91F7E74946DD
:103B4000FFF748FF303106F8011D0028F7D1ADEB33
:103B5000060000F12009780701D44FF00108C8459C
:103B600002DDA8EB090000E000208046002706E007
:103B700008A85A46C05D0B9990476D1C7F1C57459D
:103B8000F6DB04E030205A460B9990476D1CB8F1E3
:103B90000001A8F10108F5DC05E016F8010B5A4612
:103BA0000B9990476D1CB9F10001A9F10109F4DCF2
:103BB000641C65E70928010010B5002821D0114BCD
:103BC0000022001F196803E0814203D80A464968B1
:103BD0000029F9D152B11368841A9C4204D10068BB
:103BE00018441060104602E0506000E0186039B1DF
:103BF00002680B1A934203D10B681A4402604968A9
:103C0000416010BD5C000020F0B50B30154D20F078
:103C100007010024144A0FE003688B420BD38B4248
:103C200005D95E1A43184768C3E9006700E0436896
:103C3000136002C004E0021D10680028ECD1204689
:103C4000002802D1286808B10020F0BD064A0748C4
:103C50001060074A121A22F00702C0E9002401206E
:103C60002860D7E7600000205C00002034070020B7
:103C700030070120943C0008000000206400000090
:103C8000443A0008F83C000864000020CC0A010017
:103C9000543A000800200000007A030A00000000E7
:103CA00000000000010203040607080900000000EC
:103CB00017E62F001212E8001174E20004EAED008A
:103CC000F700A600D1CC1500D8400D00010000007F
:103CD00000010000000000000000000000000000E3
:103CE00000000102030401020304060708090000A2
:083CF0000000000000000000CC
:040000050800018965
:00000001FF
